{
    "abi": [
        {
            "type": "constructor",
            "inputs": [
                {
                    "name": "params",
                    "type": "tuple",
                    "internalType": "struct FractalityV2Vault.ConstructorParams",
                    "components": [
                        {
                            "name": "asset",
                            "type": "address",
                            "internalType": "address"
                        },
                        {
                            "name": "redeemFeeBasisPoints",
                            "type": "uint16",
                            "internalType": "uint16"
                        },
                        {
                            "name": "claimableDelay",
                            "type": "uint32",
                            "internalType": "uint32"
                        },
                        {
                            "name": "strategyType",
                            "type": "uint8",
                            "internalType": "uint8"
                        },
                        {
                            "name": "strategyAddress",
                            "type": "address",
                            "internalType": "address"
                        },
                        {
                            "name": "redeemFeeCollector",
                            "type": "address",
                            "internalType": "address"
                        },
                        {
                            "name": "pnlReporter",
                            "type": "address",
                            "internalType": "address"
                        },
                        {
                            "name": "maxDepositPerTransaction",
                            "type": "uint128",
                            "internalType": "uint128"
                        },
                        {
                            "name": "minDepositPerTransaction",
                            "type": "uint128",
                            "internalType": "uint128"
                        },
                        {
                            "name": "maxVaultCapacity",
                            "type": "uint256",
                            "internalType": "uint256"
                        },
                        {
                            "name": "strategyName",
                            "type": "string",
                            "internalType": "string"
                        },
                        {
                            "name": "strategyURI",
                            "type": "string",
                            "internalType": "string"
                        },
                        {
                            "name": "vaultSharesName",
                            "type": "string",
                            "internalType": "string"
                        },
                        {
                            "name": "vaultSharesSymbol",
                            "type": "string",
                            "internalType": "string"
                        }
                    ]
                }
            ],
            "stateMutability": "nonpayable"
        },
        {
            "type": "function",
            "name": "DEFAULT_ADMIN_ROLE",
            "inputs": [],
            "outputs": [
                {
                    "name": "",
                    "type": "bytes32",
                    "internalType": "bytes32"
                }
            ],
            "stateMutability": "view"
        },
        {
            "type": "function",
            "name": "DOMAIN_SEPARATOR",
            "inputs": [],
            "outputs": [
                {
                    "name": "",
                    "type": "bytes32",
                    "internalType": "bytes32"
                }
            ],
            "stateMutability": "view"
        },
        {
            "type": "function",
            "name": "PNL_REPORTER_ROLE",
            "inputs": [],
            "outputs": [
                {
                    "name": "",
                    "type": "bytes32",
                    "internalType": "bytes32"
                }
            ],
            "stateMutability": "view"
        },
        {
            "type": "function",
            "name": "allowance",
            "inputs": [
                {
                    "name": "",
                    "type": "address",
                    "internalType": "address"
                },
                {
                    "name": "",
                    "type": "address",
                    "internalType": "address"
                }
            ],
            "outputs": [
                {
                    "name": "",
                    "type": "uint256",
                    "internalType": "uint256"
                }
            ],
            "stateMutability": "view"
        },
        {
            "type": "function",
            "name": "approve",
            "inputs": [
                {
                    "name": "spender",
                    "type": "address",
                    "internalType": "address"
                },
                {
                    "name": "amount",
                    "type": "uint256",
                    "internalType": "uint256"
                }
            ],
            "outputs": [
                {
                    "name": "",
                    "type": "bool",
                    "internalType": "bool"
                }
            ],
            "stateMutability": "nonpayable"
        },
        {
            "type": "function",
            "name": "asset",
            "inputs": [],
            "outputs": [
                {
                    "name": "",
                    "type": "address",
                    "internalType": "contract ERC20"
                }
            ],
            "stateMutability": "view"
        },
        {
            "type": "function",
            "name": "balanceOf",
            "inputs": [
                {
                    "name": "",
                    "type": "address",
                    "internalType": "address"
                }
            ],
            "outputs": [
                {
                    "name": "",
                    "type": "uint256",
                    "internalType": "uint256"
                }
            ],
            "stateMutability": "view"
        },
        {
            "type": "function",
            "name": "claimableDelay",
            "inputs": [],
            "outputs": [
                {
                    "name": "",
                    "type": "uint32",
                    "internalType": "uint32"
                }
            ],
            "stateMutability": "view"
        },
        {
            "type": "function",
            "name": "claimableDepositRequest",
            "inputs": [
                {
                    "name": "",
                    "type": "uint256",
                    "internalType": "uint256"
                },
                {
                    "name": "",
                    "type": "address",
                    "internalType": "address"
                }
            ],
            "outputs": [
                {
                    "name": "",
                    "type": "uint256",
                    "internalType": "uint256"
                }
            ],
            "stateMutability": "pure"
        },
        {
            "type": "function",
            "name": "claimableRedeemRequest",
            "inputs": [
                {
                    "name": "",
                    "type": "uint256",
                    "internalType": "uint256"
                },
                {
                    "name": "controller",
                    "type": "address",
                    "internalType": "address"
                }
            ],
            "outputs": [
                {
                    "name": "",
                    "type": "uint256",
                    "internalType": "uint256"
                }
            ],
            "stateMutability": "view"
        },
        {
            "type": "function",
            "name": "convertToAssets",
            "inputs": [
                {
                    "name": "shares",
                    "type": "uint256",
                    "internalType": "uint256"
                }
            ],
            "outputs": [
                {
                    "name": "",
                    "type": "uint256",
                    "internalType": "uint256"
                }
            ],
            "stateMutability": "view"
        },
        {
            "type": "function",
            "name": "convertToShares",
            "inputs": [
                {
                    "name": "assets",
                    "type": "uint256",
                    "internalType": "uint256"
                }
            ],
            "outputs": [
                {
                    "name": "",
                    "type": "uint256",
                    "internalType": "uint256"
                }
            ],
            "stateMutability": "view"
        },
        {
            "type": "function",
            "name": "decimals",
            "inputs": [],
            "outputs": [
                {
                    "name": "",
                    "type": "uint8",
                    "internalType": "uint8"
                }
            ],
            "stateMutability": "view"
        },
        {
            "type": "function",
            "name": "deposit",
            "inputs": [
                {
                    "name": "assets",
                    "type": "uint256",
                    "internalType": "uint256"
                },
                {
                    "name": "receiver",
                    "type": "address",
                    "internalType": "address"
                }
            ],
            "outputs": [
                {
                    "name": "shares",
                    "type": "uint256",
                    "internalType": "uint256"
                }
            ],
            "stateMutability": "nonpayable"
        },
        {
            "type": "function",
            "name": "getRoleAdmin",
            "inputs": [
                {
                    "name": "role",
                    "type": "bytes32",
                    "internalType": "bytes32"
                }
            ],
            "outputs": [
                {
                    "name": "",
                    "type": "bytes32",
                    "internalType": "bytes32"
                }
            ],
            "stateMutability": "view"
        },
        {
            "type": "function",
            "name": "grantRole",
            "inputs": [
                {
                    "name": "role",
                    "type": "bytes32",
                    "internalType": "bytes32"
                },
                {
                    "name": "account",
                    "type": "address",
                    "internalType": "address"
                }
            ],
            "outputs": [],
            "stateMutability": "nonpayable"
        },
        {
            "type": "function",
            "name": "halted",
            "inputs": [],
            "outputs": [
                {
                    "name": "",
                    "type": "bool",
                    "internalType": "bool"
                }
            ],
            "stateMutability": "view"
        },
        {
            "type": "function",
            "name": "hasRole",
            "inputs": [
                {
                    "name": "role",
                    "type": "bytes32",
                    "internalType": "bytes32"
                },
                {
                    "name": "account",
                    "type": "address",
                    "internalType": "address"
                }
            ],
            "outputs": [
                {
                    "name": "",
                    "type": "bool",
                    "internalType": "bool"
                }
            ],
            "stateMutability": "view"
        },
        {
            "type": "function",
            "name": "isOperator",
            "inputs": [
                {
                    "name": "account",
                    "type": "address",
                    "internalType": "address"
                },
                {
                    "name": "operator",
                    "type": "address",
                    "internalType": "address"
                }
            ],
            "outputs": [
                {
                    "name": "",
                    "type": "bool",
                    "internalType": "bool"
                }
            ],
            "stateMutability": "view"
        },
        {
            "type": "function",
            "name": "maxDeposit",
            "inputs": [
                {
                    "name": "",
                    "type": "address",
                    "internalType": "address"
                }
            ],
            "outputs": [
                {
                    "name": "",
                    "type": "uint256",
                    "internalType": "uint256"
                }
            ],
            "stateMutability": "view"
        },
        {
            "type": "function",
            "name": "maxDepositPerTransaction",
            "inputs": [],
            "outputs": [
                {
                    "name": "",
                    "type": "uint128",
                    "internalType": "uint128"
                }
            ],
            "stateMutability": "view"
        },
        {
            "type": "function",
            "name": "maxMint",
            "inputs": [
                {
                    "name": "receiver",
                    "type": "address",
                    "internalType": "address"
                }
            ],
            "outputs": [
                {
                    "name": "",
                    "type": "uint256",
                    "internalType": "uint256"
                }
            ],
            "stateMutability": "view"
        },
        {
            "type": "function",
            "name": "maxRedeem",
            "inputs": [
                {
                    "name": "controller",
                    "type": "address",
                    "internalType": "address"
                }
            ],
            "outputs": [
                {
                    "name": "",
                    "type": "uint256",
                    "internalType": "uint256"
                }
            ],
            "stateMutability": "view"
        },
        {
            "type": "function",
            "name": "maxVaultCapacity",
            "inputs": [],
            "outputs": [
                {
                    "name": "",
                    "type": "uint256",
                    "internalType": "uint256"
                }
            ],
            "stateMutability": "view"
        },
        {
            "type": "function",
            "name": "maxWithdraw",
            "inputs": [
                {
                    "name": "",
                    "type": "address",
                    "internalType": "address"
                }
            ],
            "outputs": [
                {
                    "name": "",
                    "type": "uint256",
                    "internalType": "uint256"
                }
            ],
            "stateMutability": "pure"
        },
        {
            "type": "function",
            "name": "minDepositPerTransaction",
            "inputs": [],
            "outputs": [
                {
                    "name": "",
                    "type": "uint128",
                    "internalType": "uint128"
                }
            ],
            "stateMutability": "view"
        },
        {
            "type": "function",
            "name": "mint",
            "inputs": [
                {
                    "name": "shares",
                    "type": "uint256",
                    "internalType": "uint256"
                },
                {
                    "name": "receiver",
                    "type": "address",
                    "internalType": "address"
                }
            ],
            "outputs": [
                {
                    "name": "assets",
                    "type": "uint256",
                    "internalType": "uint256"
                }
            ],
            "stateMutability": "nonpayable"
        },
        {
            "type": "function",
            "name": "name",
            "inputs": [],
            "outputs": [
                {
                    "name": "",
                    "type": "string",
                    "internalType": "string"
                }
            ],
            "stateMutability": "view"
        },
        {
            "type": "function",
            "name": "nonces",
            "inputs": [
                {
                    "name": "",
                    "type": "address",
                    "internalType": "address"
                }
            ],
            "outputs": [
                {
                    "name": "",
                    "type": "uint256",
                    "internalType": "uint256"
                }
            ],
            "stateMutability": "view"
        },
        {
            "type": "function",
            "name": "operators",
            "inputs": [
                {
                    "name": "",
                    "type": "address",
                    "internalType": "address"
                },
                {
                    "name": "",
                    "type": "address",
                    "internalType": "address"
                }
            ],
            "outputs": [
                {
                    "name": "",
                    "type": "bool",
                    "internalType": "bool"
                }
            ],
            "stateMutability": "view"
        },
        {
            "type": "function",
            "name": "pendingDepositRequest",
            "inputs": [
                {
                    "name": "",
                    "type": "uint256",
                    "internalType": "uint256"
                },
                {
                    "name": "",
                    "type": "address",
                    "internalType": "address"
                }
            ],
            "outputs": [
                {
                    "name": "",
                    "type": "uint256",
                    "internalType": "uint256"
                }
            ],
            "stateMutability": "pure"
        },
        {
            "type": "function",
            "name": "pendingRedeemRequest",
            "inputs": [
                {
                    "name": "",
                    "type": "uint256",
                    "internalType": "uint256"
                },
                {
                    "name": "controller",
                    "type": "address",
                    "internalType": "address"
                }
            ],
            "outputs": [
                {
                    "name": "",
                    "type": "uint256",
                    "internalType": "uint256"
                }
            ],
            "stateMutability": "view"
        },
        {
            "type": "function",
            "name": "permit",
            "inputs": [
                {
                    "name": "owner",
                    "type": "address",
                    "internalType": "address"
                },
                {
                    "name": "spender",
                    "type": "address",
                    "internalType": "address"
                },
                {
                    "name": "value",
                    "type": "uint256",
                    "internalType": "uint256"
                },
                {
                    "name": "deadline",
                    "type": "uint256",
                    "internalType": "uint256"
                },
                {
                    "name": "v",
                    "type": "uint8",
                    "internalType": "uint8"
                },
                {
                    "name": "r",
                    "type": "bytes32",
                    "internalType": "bytes32"
                },
                {
                    "name": "s",
                    "type": "bytes32",
                    "internalType": "bytes32"
                }
            ],
            "outputs": [],
            "stateMutability": "nonpayable"
        },
        {
            "type": "function",
            "name": "previewDeposit",
            "inputs": [
                {
                    "name": "assets",
                    "type": "uint256",
                    "internalType": "uint256"
                }
            ],
            "outputs": [
                {
                    "name": "",
                    "type": "uint256",
                    "internalType": "uint256"
                }
            ],
            "stateMutability": "view"
        },
        {
            "type": "function",
            "name": "previewMint",
            "inputs": [
                {
                    "name": "shares",
                    "type": "uint256",
                    "internalType": "uint256"
                }
            ],
            "outputs": [
                {
                    "name": "",
                    "type": "uint256",
                    "internalType": "uint256"
                }
            ],
            "stateMutability": "view"
        },
        {
            "type": "function",
            "name": "previewRedeem",
            "inputs": [
                {
                    "name": "",
                    "type": "uint256",
                    "internalType": "uint256"
                }
            ],
            "outputs": [
                {
                    "name": "",
                    "type": "uint256",
                    "internalType": "uint256"
                }
            ],
            "stateMutability": "pure"
        },
        {
            "type": "function",
            "name": "previewWithdraw",
            "inputs": [
                {
                    "name": "",
                    "type": "uint256",
                    "internalType": "uint256"
                }
            ],
            "outputs": [
                {
                    "name": "",
                    "type": "uint256",
                    "internalType": "uint256"
                }
            ],
            "stateMutability": "pure"
        },
        {
            "type": "function",
            "name": "rebalanceAssets",
            "inputs": [
                {
                    "name": "sourceOfAssets",
                    "type": "address",
                    "internalType": "address"
                }
            ],
            "outputs": [],
            "stateMutability": "nonpayable"
        },
        {
            "type": "function",
            "name": "redeem",
            "inputs": [
                {
                    "name": "shares",
                    "type": "uint256",
                    "internalType": "uint256"
                },
                {
                    "name": "receiver",
                    "type": "address",
                    "internalType": "address"
                },
                {
                    "name": "controller",
                    "type": "address",
                    "internalType": "address"
                }
            ],
            "outputs": [
                {
                    "name": "",
                    "type": "uint256",
                    "internalType": "uint256"
                }
            ],
            "stateMutability": "nonpayable"
        },
        {
            "type": "function",
            "name": "redeemFeeBasisPoints",
            "inputs": [],
            "outputs": [
                {
                    "name": "",
                    "type": "uint16",
                    "internalType": "uint16"
                }
            ],
            "stateMutability": "view"
        },
        {
            "type": "function",
            "name": "redeemFeeCollector",
            "inputs": [],
            "outputs": [
                {
                    "name": "",
                    "type": "address",
                    "internalType": "address"
                }
            ],
            "stateMutability": "view"
        },
        {
            "type": "function",
            "name": "redeemRequests",
            "inputs": [
                {
                    "name": "",
                    "type": "address",
                    "internalType": "address"
                }
            ],
            "outputs": [
                {
                    "name": "redeemRequestShareAmount",
                    "type": "uint256",
                    "internalType": "uint256"
                },
                {
                    "name": "redeemRequestAssetAmount",
                    "type": "uint256",
                    "internalType": "uint256"
                },
                {
                    "name": "redeemRequestCreationTime",
                    "type": "uint96",
                    "internalType": "uint96"
                },
                {
                    "name": "originalSharesOwner",
                    "type": "address",
                    "internalType": "address"
                },
                {
                    "name": "redeemFeeBasisPoints",
                    "type": "uint16",
                    "internalType": "uint16"
                }
            ],
            "stateMutability": "view"
        },
        {
            "type": "function",
            "name": "renounceRole",
            "inputs": [
                {
                    "name": "role",
                    "type": "bytes32",
                    "internalType": "bytes32"
                },
                {
                    "name": "callerConfirmation",
                    "type": "address",
                    "internalType": "address"
                }
            ],
            "outputs": [],
            "stateMutability": "nonpayable"
        },
        {
            "type": "function",
            "name": "reportLosses",
            "inputs": [
                {
                    "name": "assetLossAmount",
                    "type": "uint256",
                    "internalType": "uint256"
                },
                {
                    "name": "infoURI",
                    "type": "string",
                    "internalType": "string"
                }
            ],
            "outputs": [
                {
                    "name": "",
                    "type": "uint256",
                    "internalType": "uint256"
                }
            ],
            "stateMutability": "nonpayable"
        },
        {
            "type": "function",
            "name": "reportProfits",
            "inputs": [
                {
                    "name": "assetProfitAmount",
                    "type": "uint256",
                    "internalType": "uint256"
                },
                {
                    "name": "infoURI",
                    "type": "string",
                    "internalType": "string"
                }
            ],
            "outputs": [
                {
                    "name": "",
                    "type": "uint256",
                    "internalType": "uint256"
                }
            ],
            "stateMutability": "nonpayable"
        },
        {
            "type": "function",
            "name": "requestDeposit",
            "inputs": [
                {
                    "name": "",
                    "type": "uint256",
                    "internalType": "uint256"
                }
            ],
            "outputs": [
                {
                    "name": "",
                    "type": "uint256",
                    "internalType": "uint256"
                }
            ],
            "stateMutability": "pure"
        },
        {
            "type": "function",
            "name": "requestRedeem",
            "inputs": [
                {
                    "name": "shares",
                    "type": "uint256",
                    "internalType": "uint256"
                },
                {
                    "name": "controller",
                    "type": "address",
                    "internalType": "address"
                },
                {
                    "name": "owner",
                    "type": "address",
                    "internalType": "address"
                }
            ],
            "outputs": [
                {
                    "name": "",
                    "type": "uint8",
                    "internalType": "uint8"
                }
            ],
            "stateMutability": "nonpayable"
        },
        {
            "type": "function",
            "name": "requestRedeem",
            "inputs": [
                {
                    "name": "shares",
                    "type": "uint256",
                    "internalType": "uint256"
                },
                {
                    "name": "controller",
                    "type": "address",
                    "internalType": "address"
                },
                {
                    "name": "owner",
                    "type": "address",
                    "internalType": "address"
                },
                {
                    "name": "minAssetsOut",
                    "type": "uint256",
                    "internalType": "uint256"
                }
            ],
            "outputs": [
                {
                    "name": "",
                    "type": "uint8",
                    "internalType": "uint8"
                }
            ],
            "stateMutability": "nonpayable"
        },
        {
            "type": "function",
            "name": "revokeRole",
            "inputs": [
                {
                    "name": "role",
                    "type": "bytes32",
                    "internalType": "bytes32"
                },
                {
                    "name": "account",
                    "type": "address",
                    "internalType": "address"
                }
            ],
            "outputs": [],
            "stateMutability": "nonpayable"
        },
        {
            "type": "function",
            "name": "setClaimableDelay",
            "inputs": [
                {
                    "name": "_newClaimableDelay",
                    "type": "uint32",
                    "internalType": "uint32"
                }
            ],
            "outputs": [],
            "stateMutability": "nonpayable"
        },
        {
            "type": "function",
            "name": "setHaltStatus",
            "inputs": [
                {
                    "name": "_newHaltStatus",
                    "type": "bool",
                    "internalType": "bool"
                }
            ],
            "outputs": [],
            "stateMutability": "nonpayable"
        },
        {
            "type": "function",
            "name": "setMaxDepositPerTransaction",
            "inputs": [
                {
                    "name": "_newMaxDepositPerTransaction",
                    "type": "uint128",
                    "internalType": "uint128"
                }
            ],
            "outputs": [],
            "stateMutability": "nonpayable"
        },
        {
            "type": "function",
            "name": "setMaxVaultCapacity",
            "inputs": [
                {
                    "name": "_newMaxVaultCapacity",
                    "type": "uint256",
                    "internalType": "uint256"
                }
            ],
            "outputs": [],
            "stateMutability": "nonpayable"
        },
        {
            "type": "function",
            "name": "setMinDepositPerTransaction",
            "inputs": [
                {
                    "name": "_newMinDepositPerTransaction",
                    "type": "uint128",
                    "internalType": "uint128"
                }
            ],
            "outputs": [],
            "stateMutability": "nonpayable"
        },
        {
            "type": "function",
            "name": "setOperator",
            "inputs": [
                {
                    "name": "_operator",
                    "type": "address",
                    "internalType": "address"
                },
                {
                    "name": "_approved",
                    "type": "bool",
                    "internalType": "bool"
                }
            ],
            "outputs": [],
            "stateMutability": "nonpayable"
        },
        {
            "type": "function",
            "name": "setRedeemFee",
            "inputs": [
                {
                    "name": "_newRedeemFeeBasisPoints",
                    "type": "uint16",
                    "internalType": "uint16"
                }
            ],
            "outputs": [],
            "stateMutability": "nonpayable"
        },
        {
            "type": "function",
            "name": "setRedeemFeeCollector",
            "inputs": [
                {
                    "name": "_newRedeemFeeCollector",
                    "type": "address",
                    "internalType": "address"
                }
            ],
            "outputs": [],
            "stateMutability": "nonpayable"
        },
        {
            "type": "function",
            "name": "setStrategyName",
            "inputs": [
                {
                    "name": "_newStrategyName",
                    "type": "string",
                    "internalType": "string"
                }
            ],
            "outputs": [],
            "stateMutability": "nonpayable"
        },
        {
            "type": "function",
            "name": "setStrategyURI",
            "inputs": [
                {
                    "name": "_newStrategyURI",
                    "type": "string",
                    "internalType": "string"
                }
            ],
            "outputs": [],
            "stateMutability": "nonpayable"
        },
        {
            "type": "function",
            "name": "strategy",
            "inputs": [],
            "outputs": [
                {
                    "name": "strategyAddress",
                    "type": "address",
                    "internalType": "address"
                },
                {
                    "name": "strategyAddressType",
                    "type": "uint8",
                    "internalType": "enum FractalityV2Vault.StrategyAddressType"
                },
                {
                    "name": "strategyURI",
                    "type": "string",
                    "internalType": "string"
                },
                {
                    "name": "strategyName",
                    "type": "string",
                    "internalType": "string"
                }
            ],
            "stateMutability": "view"
        },
        {
            "type": "function",
            "name": "supportsInterface",
            "inputs": [
                {
                    "name": "interfaceId",
                    "type": "bytes4",
                    "internalType": "bytes4"
                }
            ],
            "outputs": [
                {
                    "name": "",
                    "type": "bool",
                    "internalType": "bool"
                }
            ],
            "stateMutability": "view"
        },
        {
            "type": "function",
            "name": "symbol",
            "inputs": [],
            "outputs": [
                {
                    "name": "",
                    "type": "string",
                    "internalType": "string"
                }
            ],
            "stateMutability": "view"
        },
        {
            "type": "function",
            "name": "totalAssets",
            "inputs": [],
            "outputs": [
                {
                    "name": "",
                    "type": "uint256",
                    "internalType": "uint256"
                }
            ],
            "stateMutability": "view"
        },
        {
            "type": "function",
            "name": "totalAssetsInRedemptionProcess",
            "inputs": [],
            "outputs": [
                {
                    "name": "",
                    "type": "uint256",
                    "internalType": "uint256"
                }
            ],
            "stateMutability": "view"
        },
        {
            "type": "function",
            "name": "totalLossesReported",
            "inputs": [],
            "outputs": [
                {
                    "name": "",
                    "type": "uint256",
                    "internalType": "uint256"
                }
            ],
            "stateMutability": "view"
        },
        {
            "type": "function",
            "name": "totalProfitsReported",
            "inputs": [],
            "outputs": [
                {
                    "name": "",
                    "type": "uint256",
                    "internalType": "uint256"
                }
            ],
            "stateMutability": "view"
        },
        {
            "type": "function",
            "name": "totalSharesInRedemptionProcess",
            "inputs": [],
            "outputs": [
                {
                    "name": "",
                    "type": "uint256",
                    "internalType": "uint256"
                }
            ],
            "stateMutability": "view"
        },
        {
            "type": "function",
            "name": "totalSupply",
            "inputs": [],
            "outputs": [
                {
                    "name": "",
                    "type": "uint256",
                    "internalType": "uint256"
                }
            ],
            "stateMutability": "view"
        },
        {
            "type": "function",
            "name": "transfer",
            "inputs": [
                {
                    "name": "to",
                    "type": "address",
                    "internalType": "address"
                },
                {
                    "name": "amount",
                    "type": "uint256",
                    "internalType": "uint256"
                }
            ],
            "outputs": [
                {
                    "name": "",
                    "type": "bool",
                    "internalType": "bool"
                }
            ],
            "stateMutability": "nonpayable"
        },
        {
            "type": "function",
            "name": "transferFrom",
            "inputs": [
                {
                    "name": "from",
                    "type": "address",
                    "internalType": "address"
                },
                {
                    "name": "to",
                    "type": "address",
                    "internalType": "address"
                },
                {
                    "name": "amount",
                    "type": "uint256",
                    "internalType": "uint256"
                }
            ],
            "outputs": [
                {
                    "name": "",
                    "type": "bool",
                    "internalType": "bool"
                }
            ],
            "stateMutability": "nonpayable"
        },
        {
            "type": "function",
            "name": "vaultAssets",
            "inputs": [],
            "outputs": [
                {
                    "name": "",
                    "type": "uint256",
                    "internalType": "uint256"
                }
            ],
            "stateMutability": "view"
        },
        {
            "type": "function",
            "name": "withdraw",
            "inputs": [
                {
                    "name": "",
                    "type": "uint256",
                    "internalType": "uint256"
                },
                {
                    "name": "",
                    "type": "address",
                    "internalType": "address"
                },
                {
                    "name": "",
                    "type": "address",
                    "internalType": "address"
                }
            ],
            "outputs": [
                {
                    "name": "",
                    "type": "uint256",
                    "internalType": "uint256"
                }
            ],
            "stateMutability": "pure"
        },
        {
            "type": "event",
            "name": "Approval",
            "inputs": [
                {
                    "name": "owner",
                    "type": "address",
                    "indexed": true,
                    "internalType": "address"
                },
                {
                    "name": "spender",
                    "type": "address",
                    "indexed": true,
                    "internalType": "address"
                },
                {
                    "name": "amount",
                    "type": "uint256",
                    "indexed": false,
                    "internalType": "uint256"
                }
            ],
            "anonymous": false
        },
        {
            "type": "event",
            "name": "AssetsRebalanced",
            "inputs": [
                {
                    "name": "assetInflow",
                    "type": "uint256",
                    "indexed": false,
                    "internalType": "uint256"
                },
                {
                    "name": "assetOutflow",
                    "type": "uint256",
                    "indexed": false,
                    "internalType": "uint256"
                }
            ],
            "anonymous": false
        },
        {
            "type": "event",
            "name": "ClaimableDelaySet",
            "inputs": [
                {
                    "name": "newClaimableDelay",
                    "type": "uint32",
                    "indexed": false,
                    "internalType": "uint32"
                }
            ],
            "anonymous": false
        },
        {
            "type": "event",
            "name": "Deposit",
            "inputs": [
                {
                    "name": "caller",
                    "type": "address",
                    "indexed": true,
                    "internalType": "address"
                },
                {
                    "name": "owner",
                    "type": "address",
                    "indexed": true,
                    "internalType": "address"
                },
                {
                    "name": "assets",
                    "type": "uint256",
                    "indexed": false,
                    "internalType": "uint256"
                },
                {
                    "name": "shares",
                    "type": "uint256",
                    "indexed": false,
                    "internalType": "uint256"
                }
            ],
            "anonymous": false
        },
        {
            "type": "event",
            "name": "HaltStatusChanged",
            "inputs": [
                {
                    "name": "newStatus",
                    "type": "bool",
                    "indexed": false,
                    "internalType": "bool"
                }
            ],
            "anonymous": false
        },
        {
            "type": "event",
            "name": "LossReported",
            "inputs": [
                {
                    "name": "assetLossAmount",
                    "type": "uint256",
                    "indexed": false,
                    "internalType": "uint256"
                },
                {
                    "name": "infoURI",
                    "type": "string",
                    "indexed": false,
                    "internalType": "string"
                }
            ],
            "anonymous": false
        },
        {
            "type": "event",
            "name": "MaxDepositPerTransactionSet",
            "inputs": [
                {
                    "name": "newMaxDepositPerTransaction",
                    "type": "uint256",
                    "indexed": false,
                    "internalType": "uint256"
                }
            ],
            "anonymous": false
        },
        {
            "type": "event",
            "name": "MaxVaultCapacitySet",
            "inputs": [
                {
                    "name": "newMaxVaultCapacity",
                    "type": "uint256",
                    "indexed": false,
                    "internalType": "uint256"
                }
            ],
            "anonymous": false
        },
        {
            "type": "event",
            "name": "MinDepositSet",
            "inputs": [
                {
                    "name": "newMinDepositPerTransaction",
                    "type": "uint256",
                    "indexed": false,
                    "internalType": "uint256"
                }
            ],
            "anonymous": false
        },
        {
            "type": "event",
            "name": "OperatorSet",
            "inputs": [
                {
                    "name": "caller",
                    "type": "address",
                    "indexed": true,
                    "internalType": "address"
                },
                {
                    "name": "operator",
                    "type": "address",
                    "indexed": true,
                    "internalType": "address"
                },
                {
                    "name": "approved",
                    "type": "bool",
                    "indexed": false,
                    "internalType": "bool"
                }
            ],
            "anonymous": false
        },
        {
            "type": "event",
            "name": "ProfitReported",
            "inputs": [
                {
                    "name": "assetProfitAmount",
                    "type": "uint256",
                    "indexed": false,
                    "internalType": "uint256"
                },
                {
                    "name": "infoURI",
                    "type": "string",
                    "indexed": false,
                    "internalType": "string"
                }
            ],
            "anonymous": false
        },
        {
            "type": "event",
            "name": "RedeemFeeCollectorSet",
            "inputs": [
                {
                    "name": "newRedeemFeeCollector",
                    "type": "address",
                    "indexed": false,
                    "internalType": "address"
                }
            ],
            "anonymous": false
        },
        {
            "type": "event",
            "name": "RedeemFeeSet",
            "inputs": [
                {
                    "name": "newRedeemFee",
                    "type": "uint16",
                    "indexed": false,
                    "internalType": "uint16"
                }
            ],
            "anonymous": false
        },
        {
            "type": "event",
            "name": "RedeemRequest",
            "inputs": [
                {
                    "name": "caller",
                    "type": "address",
                    "indexed": true,
                    "internalType": "address"
                },
                {
                    "name": "controller",
                    "type": "address",
                    "indexed": true,
                    "internalType": "address"
                },
                {
                    "name": "owner",
                    "type": "address",
                    "indexed": true,
                    "internalType": "address"
                },
                {
                    "name": "shares",
                    "type": "uint256",
                    "indexed": false,
                    "internalType": "uint256"
                },
                {
                    "name": "assets",
                    "type": "uint256",
                    "indexed": false,
                    "internalType": "uint256"
                }
            ],
            "anonymous": false
        },
        {
            "type": "event",
            "name": "RoleAdminChanged",
            "inputs": [
                {
                    "name": "role",
                    "type": "bytes32",
                    "indexed": true,
                    "internalType": "bytes32"
                },
                {
                    "name": "previousAdminRole",
                    "type": "bytes32",
                    "indexed": true,
                    "internalType": "bytes32"
                },
                {
                    "name": "newAdminRole",
                    "type": "bytes32",
                    "indexed": true,
                    "internalType": "bytes32"
                }
            ],
            "anonymous": false
        },
        {
            "type": "event",
            "name": "RoleGranted",
            "inputs": [
                {
                    "name": "role",
                    "type": "bytes32",
                    "indexed": true,
                    "internalType": "bytes32"
                },
                {
                    "name": "account",
                    "type": "address",
                    "indexed": true,
                    "internalType": "address"
                },
                {
                    "name": "sender",
                    "type": "address",
                    "indexed": true,
                    "internalType": "address"
                }
            ],
            "anonymous": false
        },
        {
            "type": "event",
            "name": "RoleRevoked",
            "inputs": [
                {
                    "name": "role",
                    "type": "bytes32",
                    "indexed": true,
                    "internalType": "bytes32"
                },
                {
                    "name": "account",
                    "type": "address",
                    "indexed": true,
                    "internalType": "address"
                },
                {
                    "name": "sender",
                    "type": "address",
                    "indexed": true,
                    "internalType": "address"
                }
            ],
            "anonymous": false
        },
        {
            "type": "event",
            "name": "StrategyNameSet",
            "inputs": [
                {
                    "name": "newStrategyName",
                    "type": "string",
                    "indexed": false,
                    "internalType": "string"
                }
            ],
            "anonymous": false
        },
        {
            "type": "event",
            "name": "StrategyURISet",
            "inputs": [
                {
                    "name": "newStrategyURI",
                    "type": "string",
                    "indexed": false,
                    "internalType": "string"
                }
            ],
            "anonymous": false
        },
        {
            "type": "event",
            "name": "Transfer",
            "inputs": [
                {
                    "name": "from",
                    "type": "address",
                    "indexed": true,
                    "internalType": "address"
                },
                {
                    "name": "to",
                    "type": "address",
                    "indexed": true,
                    "internalType": "address"
                },
                {
                    "name": "amount",
                    "type": "uint256",
                    "indexed": false,
                    "internalType": "uint256"
                }
            ],
            "anonymous": false
        },
        {
            "type": "event",
            "name": "Withdraw",
            "inputs": [
                {
                    "name": "caller",
                    "type": "address",
                    "indexed": true,
                    "internalType": "address"
                },
                {
                    "name": "receiver",
                    "type": "address",
                    "indexed": true,
                    "internalType": "address"
                },
                {
                    "name": "owner",
                    "type": "address",
                    "indexed": true,
                    "internalType": "address"
                },
                {
                    "name": "assets",
                    "type": "uint256",
                    "indexed": false,
                    "internalType": "uint256"
                },
                {
                    "name": "shares",
                    "type": "uint256",
                    "indexed": false,
                    "internalType": "uint256"
                }
            ],
            "anonymous": false
        },
        {
            "type": "error",
            "name": "AccessControlBadConfirmation",
            "inputs": []
        },
        {
            "type": "error",
            "name": "AccessControlUnauthorizedAccount",
            "inputs": [
                {
                    "name": "account",
                    "type": "address",
                    "internalType": "address"
                },
                {
                    "name": "neededRole",
                    "type": "bytes32",
                    "internalType": "bytes32"
                }
            ]
        },
        {
            "type": "error",
            "name": "ControllerMustBeCaller",
            "inputs": []
        },
        {
            "type": "error",
            "name": "ExceedsMaxVaultCapacity",
            "inputs": []
        },
        {
            "type": "error",
            "name": "ExistingRedeemRequest",
            "inputs": []
        },
        {
            "type": "error",
            "name": "HaltStatusUnchanged",
            "inputs": []
        },
        {
            "type": "error",
            "name": "Halted",
            "inputs": []
        },
        {
            "type": "error",
            "name": "InsufficientAllowance",
            "inputs": []
        },
        {
            "type": "error",
            "name": "InsufficientAssetsInVault",
            "inputs": []
        },
        {
            "type": "error",
            "name": "InsufficientShares",
            "inputs": []
        },
        {
            "type": "error",
            "name": "InvalidDepositAmount",
            "inputs": [
                {
                    "name": "amount",
                    "type": "uint256",
                    "internalType": "uint256"
                }
            ]
        },
        {
            "type": "error",
            "name": "InvalidMaxDepositPerTransaction",
            "inputs": []
        },
        {
            "type": "error",
            "name": "InvalidMaxVaultCapacity",
            "inputs": []
        },
        {
            "type": "error",
            "name": "InvalidMinDepositPerTransaction",
            "inputs": []
        },
        {
            "type": "error",
            "name": "InvalidRedeemFee",
            "inputs": []
        },
        {
            "type": "error",
            "name": "InvalidStrategyType",
            "inputs": []
        },
        {
            "type": "error",
            "name": "LossExceedsVaultAssets",
            "inputs": []
        },
        {
            "type": "error",
            "name": "NonClaimableRedeemRequest",
            "inputs": []
        },
        {
            "type": "error",
            "name": "NonexistentRedeemRequest",
            "inputs": []
        },
        {
            "type": "error",
            "name": "NotAvailableInAsyncRedeemVault",
            "inputs": []
        },
        {
            "type": "error",
            "name": "ReentrancyGuardReentrantCall",
            "inputs": []
        },
        {
            "type": "error",
            "name": "RequestRedeemMinAssetsFail",
            "inputs": []
        },
        {
            "type": "error",
            "name": "ShareAmountDiscrepancy",
            "inputs": []
        },
        {
            "type": "error",
            "name": "Unauthorized",
            "inputs": []
        },
        {
            "type": "error",
            "name": "ZeroAddress",
            "inputs": []
        },
        {
            "type": "error",
            "name": "ZeroAssets",
            "inputs": []
        },
        {
            "type": "error",
            "name": "ZeroShares",
            "inputs": []
        }
    ],
    "bytecode": {
        "object": "0x61010060405234801561001157600080fd5b50604051613dc7380380613dc78339810160408190526100309161067d565b8060000151816101800151826101a001518181846001600160a01b031663313ce5676040518163ffffffff1660e01b8152600401602060405180830381865afa158015610081573d6000803e3d6000fd5b505050506040513d601f19601f820116820180604052508101906100a5919061081c565b60016100b184826108c7565b5060026100be83826108c7565b5060ff81166080524660a0526100d26103d9565b60c0525050506001600160a01b0392831660e052505060016007558151161580610107575060808101516001600160a01b0316155b8061011d575060c08101516001600160a01b0316155b80610133575060a08101516001600160a01b0316155b156101515760405163d92e233d60e01b815260040160405180910390fd5b8060e001516001600160801b03168161010001516001600160801b0316111561018d57604051635e8d822d60e11b815260040160405180910390fd5b8061012001516000036101b35760405163194ce6d760e21b815260040160405180910390fd5b61271061ffff16816020015161ffff1611156101e2576040516308fefc0560e21b815260040160405180910390fd5b6003816060015160ff16111561020b57604051634752c14960e01b815260040160405180910390fd5b604051806080016040528082608001516001600160a01b03168152602001826060015160ff16600381111561024257610242610985565b600381111561025357610253610985565b81526101608301516020808301919091526101408401516040909201919091528151600880546001600160a01b031981166001600160a01b039093169283178255928401519092909183916001600160a81b03191617600160a01b8360038111156102c0576102c0610985565b0217905550604082015160018201906102d990826108c7565b50606082015160028201906102ee90826108c7565b50505060e08101516101008201516001600160801b039081169116600160801b026001600160801b03191617600f55610120810151601055602081015160128054604084015160a08501516001600160a01b03166001600160a01b031963ffffffff909216600160b81b0263ffffffff60b81b1961ffff909616600160a81b029590951665ffffffffffff60a81b1990931692909217939093179290921691909117905561039d600033610473565b506103d27f9b6dcdc44cb44c0185205ac6845a7c5bfd57d8605b02e21168d77de0d7a91b2f8260c0015161047360201b60201c565b5050610a10565b60007f8b73c3c69bb8fe3d512ecc4cf759cc79239f7b179b0ffacaa9a75d522b39400f600160405161040b919061099b565b6040805191829003822060208301939093528101919091527fc89efdaa54c0f20c7adf612882df0950f5a951637e0307cdcb4c672f298b8bc660608201524660808201523060a082015260c00160405160208183030381529060405280519060200120905090565b6000828152602081815260408083206001600160a01b038516845290915281205460ff16610515576000838152602081815260408083206001600160a01b03861684529091529020805460ff191660011790556104cd3390565b6001600160a01b0316826001600160a01b0316847f2f8788117e7eff1d82e926ec794901d17c78024a50270940304540a733656f0d60405160405180910390a4506001610519565b5060005b92915050565b634e487b7160e01b600052604160045260246000fd5b6040516101c081016001600160401b03811182821017156105585761055861051f565b60405290565b604051601f8201601f191681016001600160401b03811182821017156105865761058661051f565b604052919050565b80516001600160a01b03811681146105a557600080fd5b919050565b805161ffff811681146105a557600080fd5b805163ffffffff811681146105a557600080fd5b805160ff811681146105a557600080fd5b80516001600160801b03811681146105a557600080fd5b600082601f83011261060957600080fd5b81516001600160401b038111156106225761062261051f565b610635601f8201601f191660200161055e565b81815284602083860101111561064a57600080fd5b60005b828110156106695760208186018101518383018201520161064d565b506000918101602001919091529392505050565b60006020828403121561068f57600080fd5b81516001600160401b038111156106a557600080fd5b82016101c081850312156106b857600080fd5b6106c0610535565b6106c98261058e565b81526106d7602083016105aa565b60208201526106e8604083016105bc565b60408201526106f9606083016105d0565b606082015261070a6080830161058e565b608082015261071b60a0830161058e565b60a082015261072c60c0830161058e565b60c082015261073d60e083016105e1565b60e082015261074f61010083016105e1565b61010082015261012082810151908201526101408201516001600160401b0381111561077a57600080fd5b610786868285016105f8565b610140830152506101608201516001600160401b038111156107a757600080fd5b6107b3868285016105f8565b610160830152506101808201516001600160401b038111156107d457600080fd5b6107e0868285016105f8565b610180830152506101a08201516001600160401b0381111561080157600080fd5b61080d868285016105f8565b6101a083015250949350505050565b60006020828403121561082e57600080fd5b610837826105d0565b9392505050565b600181811c9082168061085257607f821691505b60208210810361087257634e487b7160e01b600052602260045260246000fd5b50919050565b601f8211156108c257806000526020600020601f840160051c8101602085101561089f5750805b601f840160051c820191505b818110156108bf57600081556001016108ab565b50505b505050565b81516001600160401b038111156108e0576108e061051f565b6108f4816108ee845461083e565b84610878565b6020601f82116001811461092857600083156109105750848201515b600019600385901b1c1916600184901b1784556108bf565b600084815260208120601f198516915b828110156109585787850151825560209485019460019092019101610938565b50848210156109765786840151600019600387901b60f8161c191681555b50505050600190811b01905550565b634e487b7160e01b600052602160045260246000fd5b60008083546109a98161083e565b6001821680156109c057600181146109d557610a05565b60ff1983168652811515820286019350610a05565b86600052602060002060005b838110156109fd578154888201526001909101906020016109e1565b505081860193505b509195945050505050565b60805160a05160c05160e051613346610a81600039600081816105e00152818161185f015281816118950152818161196c01528181611a0a01528181611aa00152818161257c0152818161261f01526128f701526000610deb01526000610db60152600061058c01526133466000f3fe608060405234801561001057600080fd5b50600436106104285760003560e01c80637d44aac71161022b578063b9b8af0b11610130578063d474c2c2116100b8578063d905777e11610087578063d905777e14610a1f578063dd62ed3e14610a32578063eaed1d0714610a5d578063ef8b30f714610a70578063f5a23d8d14610a8357600080fd5b8063d474c2c2146109d3578063d505accf146109e6578063d547741f146109f9578063d7ba389714610a0c57600080fd5b8063c63d75b6116100ff578063c63d75b614610973578063c6e6f59214610986578063ce96cb7714610999578063cef5e726146109ad578063d1c60564146109c057600080fd5b8063b9b8af0b14610911578063ba08765214610925578063ba82051b14610938578063bc3af32b1461096057600080fd5b8063995ea21a116101b3578063a9059cbb11610182578063a9059cbb146108b7578063b3d7f6b9146108ca578063b460af94146108dd578063b6363cf2146108eb578063b8cdb3c6146108fe57600080fd5b8063995ea21a1461055e578063a016b2cd14610884578063a217fddf14610897578063a8c62e761461089f57600080fd5b806391c022a5116101fa57806391c022a51461083057806391d148541461084357806394bf804d1461085657806395d89b4114610869578063980d57a61461087157600080fd5b80637d44aac71461075d5780637ecebe00146107665780638181e161146107865780638d158c2a1461079957600080fd5b806338d52e0f116103315780635d302747116102b95780636ee849c7116102885780636ee849c71461070557806370a082311461070e578063754db7211461072e5780637be97667146107415780637d41c86e1461074a57600080fd5b80635d302747146106a05780635fd6a188146106b357806362e8d5ff146106c65780636e553f65146106f257600080fd5b80634cdad506116103005780634cdad506146104b75780634e84863b1461064957806351e596e01461067b578063558a7297146106845780635954346c1461069757600080fd5b806338d52e0f146105db5780633a07d3e71461061a578063402d267d1461062d578063478431ee1461064057600080fd5b806318160ddd116103b457806326c6f96c1161038357806326c6f96c1461055e5780632f2ff15d14610574578063313ce567146105875780633644e515146105c057806336568abe146105c857600080fd5b806318160ddd146104f157806323b872dd146104fa578063248a9ca31461050d5780632637588e1461053057600080fd5b806307a2d13a116103fb57806307a2d13a14610491578063095ea7b3146104a45780630a28a477146104b75780630d1e6667146104b7578063133908cb146104ca57600080fd5b806301e1d1141461042d57806301ffc9a7146104445780630519d7c31461046757806306fdde031461047c575b600080fd5b6011545b6040519081526020015b60405180910390f35b610457610452366004612b9e565b610a96565b604051901515815260200161043b565b61047a610475366004612bdd565b610acd565b005b610484610b64565b60405161043b9190612c3e565b61043161049f366004612c51565b610bf2565b6104576104b2366004612c81565b610c20565b6104316104c5366004612c51565b610c8c565b6104317f9b6dcdc44cb44c0185205ac6845a7c5bfd57d8605b02e21168d77de0d7a91b2f81565b61043160035481565b610457610508366004612cab565b610ca7565b61043161051b366004612c51565b60009081526020819052604090206001015490565b61045761053e366004612ce8565b601460209081526000928352604080842090915290825290205460ff1681565b61043161056c366004612d1b565b600092915050565b61047a610582366004612d1b565b610d87565b6105ae7f000000000000000000000000000000000000000000000000000000000000000081565b60405160ff909116815260200161043b565b610431610db2565b61047a6105d6366004612d1b565b610e0d565b6106027f000000000000000000000000000000000000000000000000000000000000000081565b6040516001600160a01b03909116815260200161043b565b601254610602906001600160a01b031681565b61043161063b366004612d3e565b610e45565b610431600c5481565b600f5461066390600160801b90046001600160801b031681565b6040516001600160801b03909116815260200161043b565b61043160115481565b61047a610692366004612d59565b610ea8565b610431600e5481565b600f54610663906001600160801b031681565b61047a6106c1366004612d3e565b610f3c565b6012546106dd90600160b81b900463ffffffff1681565b60405163ffffffff909116815260200161043b565b610431610700366004612d1b565b610fbc565b610431600b5481565b61043161071c366004612d3e565b60046020526000908152604090205481565b61047a61073c366004612c51565b611012565b610431600d5481565b6105ae610758366004612d83565b611074565b61043160105481565b610431610774366004612d3e565b60066020526000908152604090205481565b6105ae610794366004612dbf565b611107565b6107ee6107a7366004612d3e565b6013602052600090815260409020805460018201546002830154600390930154919290916001600160601b03821691600160601b90046001600160a01b03169061ffff1685565b6040805195865260208601949094526001600160601b03909216928401929092526001600160a01b03909116606083015261ffff16608082015260a00161043b565b61047a61083e366004612e03565b6111c4565b610457610851366004612d1b565b611246565b610431610864366004612d1b565b61126f565b6104846112bb565b61047a61087f366004612e27565b6112c8565b61047a610892366004612ef2565b611327565b610431600081565b6108a761136e565b60405161043b9493929190612f2f565b6104576108c5366004612c81565b6114a9565b6104316108d8366004612c51565b61150f565b6104316104c5366004612d83565b6104576108f9366004612ce8565b61152f565b61047a61090c366004612f92565b61155d565b60125461045790600160a01b900460ff1681565b610431610933366004612d83565b6115f6565b60125461094d90600160a81b900461ffff1681565b60405161ffff909116815260200161043b565b61047a61096e366004612d3e565b61191a565b610431610981366004612d3e565b611b49565b610431610994366004612c51565b611b57565b6104316109a7366004612d3e565b50600090565b6104316109bb366004612fbb565b611b78565b61047a6109ce366004612f92565b611c3c565b61047a6109e1366004612ef2565b611cc5565b61047a6109f4366004613002565b611d0c565b61047a610a07366004612d1b565b611f55565b610431610a1a366004612fbb565b611f7a565b610431610a2d366004612d3e565b61204a565b610431610a40366004612ce8565b600560209081526000928352604080842090915290825290205481565b610431610a6b366004612d1b565b612128565b610431610a7e366004612c51565b6121f4565b610431610a91366004612d1b565b6121ff565b60006001600160e01b03198216637965db0b60e01b1480610ac757506301ffc9a760e01b6001600160e01b03198316145b92915050565b6000610ad8816122b9565b811515601260149054906101000a900460ff16151503610b0b5760405163fe6714c160e01b815260040160405180910390fd5b60128054831515600160a01b0260ff60a01b199091161790556040517ffb6acf855fe0acd48f1a958ab4c1dbf18d064200602b378af3f57dcc26c8ad4b90610b5890841515815260200190565b60405180910390a15050565b60018054610b7190613075565b80601f0160208091040260200160405190810160405280929190818152602001828054610b9d90613075565b8015610bea5780601f10610bbf57610100808354040283529160200191610bea565b820191906000526020600020905b815481529060010190602001808311610bcd57829003601f168201915b505050505081565b6003546000908015610c1757610c12610c0a60115490565b8490836122c3565b610c19565b825b9392505050565b3360008181526005602090815260408083206001600160a01b038716808552925280832085905551919290917f8c5be1e5ebec7d5bd14f71427d1e84f3dd0314c0f7b2291e5b200ac8c7c3b92590610c7b9086815260200190565b60405180910390a350600192915050565b60006040516318851e8160e01b815260040160405180910390fd5b6001600160a01b03831660009081526005602090815260408083203384529091528120546000198114610d0357610cde83826130c5565b6001600160a01b03861660009081526005602090815260408083203384529091529020555b6001600160a01b03851660009081526004602052604081208054859290610d2b9084906130c5565b90915550506001600160a01b03808516600081815260046020526040908190208054870190555190918716906000805160206132f183398151915290610d749087815260200190565b60405180910390a3506001949350505050565b600082815260208190526040902060010154610da2816122b9565b610dac83836122e1565b50505050565b60007f00000000000000000000000000000000000000000000000000000000000000004614610de857610de3612373565b905090565b507f000000000000000000000000000000000000000000000000000000000000000090565b6001600160a01b0381163314610e365760405163334bd91960e11b815260040160405180910390fd5b610e40828261240d565b505050565b601254600090600160a01b900460ff1615610e6257506000919050565b6000601154601054610e7491906130c5565b600f54909150600160801b90046001600160801b03168110610ac757600f54600160801b90046001600160801b0316610c19565b6001600160a01b038216610ecf5760405163d92e233d60e01b815260040160405180910390fd5b3360008181526014602090815260408083206001600160a01b03871680855290835292819020805460ff191686151590811790915590519081529192917fceb576d9f15e4e200fdb5096d64d5dfd667e16def20c1eefd14256d8e3faa26791015b60405180910390a35050565b6000610f47816122b9565b6001600160a01b038216610f6e5760405163d92e233d60e01b815260040160405180910390fd5b601280546001600160a01b0319166001600160a01b0384169081179091556040519081527f334c03cdec64b597f1c5c1b17630c139748db642f72108f17d0b9e13c689d6fd90602001610b58565b601254600090600160a01b900460ff1615610fea57604051631ee9080f60e01b815260040160405180910390fd5b610ff2612478565b610ffb836121f4565b90506110088383836124a2565b610ac76001600755565b600061101d816122b9565b6011548210156110405760405163194ce6d760e21b815260040160405180910390fd5b60108290556040518281527ef45702341fa32da167b11940d2844e47827ebb873381391ca55a4ebf51696890602001610b58565b601254600090600160a01b900460ff16156110a257604051631ee9080f60e01b815260040160405180910390fd5b81336001600160a01b038216148015906110c357506110c1813361152f565b155b156110e0576040516282b42960e81b815260040160405180910390fd5b6110e8612478565b6110f3858585612695565b91506110ff6001600755565b509392505050565b601254600090600160a01b900460ff161561113557604051631ee9080f60e01b815260040160405180910390fd5b82336001600160a01b038216148015906111565750611154813361152f565b155b15611173576040516282b42960e81b815260040160405180910390fd5b61117b612478565b8261118587610bf2565b10156111a457604051630c09632160e31b815260040160405180910390fd5b6111af868686612695565b91506111bb6001600755565b50949350505050565b60006111cf816122b9565b61271061ffff831611156111f6576040516308fefc0560e21b815260040160405180910390fd5b6012805461ffff60a81b1916600160a81b61ffff8516908102919091179091556040519081527fd311273b6880e545aeabe52768489c6eca71078c099b46402aa3c3314d43514990602001610b58565b6000918252602082815260408084206001600160a01b0393909316845291905290205460ff1690565b601254600090600160a01b900460ff161561129d57604051631ee9080f60e01b815260040160405180910390fd5b6112a5612478565b6112ae8361150f565b90506110088183856124a2565b60028054610b7190613075565b60006112d3816122b9565b6012805463ffffffff60b81b1916600160b81b63ffffffff8516908102919091179091556040519081527ff0d765794722974f5e277d5b5909d8813fb4c2f96b54f485f81abfa8f988046290602001610b58565b6000611332816122b9565b600a61133e838261311f565b507f21ce9ce25f0f85766c680deb376fbea42cd6d6911f217c0d89f14c439b84fcfd82604051610b589190612c3e565b60088054600980546001600160a01b03831693600160a01b90930460ff1692919061139890613075565b80601f01602080910402602001604051908101604052809291908181526020018280546113c490613075565b80156114115780601f106113e657610100808354040283529160200191611411565b820191906000526020600020905b8154815290600101906020018083116113f457829003601f168201915b50505050509080600201805461142690613075565b80601f016020809104026020016040519081016040528092919081815260200182805461145290613075565b801561149f5780601f106114745761010080835404028352916020019161149f565b820191906000526020600020905b81548152906001019060200180831161148257829003601f168201915b5050505050905084565b336000908152600460205260408120805483919083906114ca9084906130c5565b90915550506001600160a01b038316600081815260046020526040908190208054850190555133906000805160206132f183398151915290610c7b9086815260200190565b6003546000908015610c1757610c1261152760115490565b8490836128af565b6001600160a01b03918216600090815260146020908152604080832093909416825291909152205460ff1690565b6000611568816122b9565b600f546001600160801b03600160801b9091048116908316111561159f57604051635e8d822d60e11b815260040160405180910390fd5b600f80546fffffffffffffffffffffffffffffffff19166001600160801b0384169081179091556040519081527fc50a7f0bdf88c216b2541b0bdea26f22305460e39ffc672ec1a7501732c5ba8190602001610b58565b601254600090600160a01b900460ff161561162457604051631ee9080f60e01b815260040160405180910390fd5b81336001600160a01b038216148015906116455750611643813361152f565b155b15611662576040516282b42960e81b815260040160405180910390fd5b61166a612478565b6001600160a01b038416158061168757506001600160a01b038316155b156116a55760405163d92e233d60e01b815260040160405180910390fd5b6001600160a01b038084166000908152601360209081526040808320815160a0810183528154815260018201549381019390935260028101546001600160601b038116928401839052600160601b9004909416606083015260039093015461ffff16608082015291900361172c57604051630d155f5f60e31b815260040160405180910390fd5b8051861461174d57604051637295740160e01b815260040160405180910390fd5b6000611761826000015183602001516128d5565b601254604084015191925061178491600160b81b90910463ffffffff16906131de565b6001600160601b0316421080611798575080155b156117b657604051631e18e2ed60e01b815260040160405180910390fd5b8160200151600e60008282546117cc91906130c5565b90915550508151600b80546000906117e59084906130c5565b90915550506001600160a01b038516600090815260136020908152604082208281556001810183905560028101839055600301805461ffff191690558301516080840151611837919061ffff16612977565b9050600081846020015161184b91906130c5565b601254909150611888906001600160a01b037f00000000000000000000000000000000000000000000000000000000000000008116911684612990565b6118bc6001600160a01b037f0000000000000000000000000000000000000000000000000000000000000000168983612990565b606084015160408051838152602081018c90526001600160a01b03928316928b169133917ffbde797d201c681b91056529119e0b02407c7bb96a4a2c75c01fc9667232c8db910160405180910390a494505050506110ff6001600755565b611922612478565b600061192d816122b9565b6001600160a01b0382166119545760405163d92e233d60e01b815260040160405180910390fd5b6040516370a0823160e01b81523060048201526000907f00000000000000000000000000000000000000000000000000000000000000006001600160a01b0316906370a0823190602401602060405180830381865afa1580156119bb573d6000803e3d6000fd5b505050506040513d601f19601f820116820180604052508101906119df91906131fd565b905080600e541115611a7257600081600e546119fb91906130c5565b9050611a326001600160a01b037f000000000000000000000000000000000000000000000000000000000000000016853084612a11565b60408051828152600060208201527fba2164ffd3a8a2559199d7a65bda61f19348f945ae76b20b4e3b24be879a28b991015b60405180910390a150611b3a565b80600e541015611b00576000600e5482611a8c91906130c5565b600854909150611ac9906001600160a01b037f00000000000000000000000000000000000000000000000000000000000000008116911683612990565b6040805160008152602081018390527fba2164ffd3a8a2559199d7a65bda61f19348f945ae76b20b4e3b24be879a28b99101611a64565b60408051600080825260208201527fba2164ffd3a8a2559199d7a65bda61f19348f945ae76b20b4e3b24be879a28b9910160405180910390a15b5050611b466001600755565b50565b6000610ac761099483610e45565b6003546000908015610c1757610c1281611b7060115490565b8591906122c3565b60007f9b6dcdc44cb44c0185205ac6845a7c5bfd57d8605b02e21168d77de0d7a91b2f611ba4816122b9565b601154841115611bc757604051633397ecd560e01b815260040160405180910390fd5b8360116000828254611bd991906130c5565b9250508190555083600d6000828254611bf29190613216565b90915550506040517f1ecbc226067c7e429d2f5fee8740b6328435f2179a3dd1306205b555bf25389190611c299086908690613229565b60405180910390a15050600d5492915050565b6000611c47816122b9565b600f546001600160801b039081169083161015611c775760405163bb516da960e01b815260040160405180910390fd5b600f80546001600160801b03908116600160801b918516918202179091556040519081527f4ed29f2d00e0a8eb97989a07a1a5809d2fe3ca1620770d0796fffe9deb48c2a790602001610b58565b6000611cd0816122b9565b6009611cdc838261311f565b507f3223b708efe75fd54c5b600f7c887858f7373a14ffa2ad764d5a3c884e4efb5782604051610b589190612c3e565b42841015611d615760405162461bcd60e51b815260206004820152601760248201527f5045524d49545f444541444c494e455f4558504952454400000000000000000060448201526064015b60405180910390fd5b60006001611d6d610db2565b6001600160a01b038a811660008181526006602090815260409182902080546001810190915582517f6e71edae12b1b97f4d1f60370fef10105fa2faae0126114a169c64845d6126c98184015280840194909452938d166060840152608083018c905260a083019390935260c08083018b90528151808403909101815260e08301909152805192019190912061190160f01b6101008301526101028201929092526101228101919091526101420160408051601f198184030181528282528051602091820120600084529083018083525260ff871690820152606081018590526080810184905260a0016020604051602081039080840390855afa158015611e79573d6000803e3d6000fd5b5050604051601f1901519150506001600160a01b03811615801590611eaf5750876001600160a01b0316816001600160a01b0316145b611eec5760405162461bcd60e51b815260206004820152600e60248201526d24a72b20a624a22fa9a4a3a722a960911b6044820152606401611d58565b6001600160a01b0390811660009081526005602090815260408083208a8516808552908352928190208990555188815291928a16917f8c5be1e5ebec7d5bd14f71427d1e84f3dd0314c0f7b2291e5b200ac8c7c3b925910160405180910390a350505050505050565b600082815260208190526040902060010154611f70816122b9565b610dac838361240d565b60007f9b6dcdc44cb44c0185205ac6845a7c5bfd57d8605b02e21168d77de0d7a91b2f611fa6816122b9565b601054601154611fb69086613216565b1115611fd55760405163027d8fcf60e41b815260040160405180910390fd5b8360116000828254611fe79190613216565b9250508190555083600c60008282546120009190613216565b90915550506040517fee0a32f824175f3d3e0baa04f125e37440a4dba9965c88eae5ce0cfba0902cfe906120379086908690613229565b60405180910390a15050600c5492915050565b601254600090600160a01b900460ff161561206757506000919050565b6001600160a01b038083166000908152601360209081526040808320815160a0810183528154815260018201549381019390935260028101546001600160601b038116928401839052600160601b9004909416606083015260039093015461ffff1660808201529190036120de5750600092915050565b60125460408201516120fd91600160b81b900463ffffffff16906131de565b6001600160601b03164210156121165750600092915050565b610c19816000015182602001516128d5565b6001600160a01b038082166000908152601360209081526040808320815160a0810183528154815260018201549381019390935260028101546001600160601b038116928401839052600160601b9004909416606083015260039093015461ffff166080820152909182036121a1576000915050610ac7565b60125460408201516121c091600160b81b900463ffffffff16906131de565b6001600160601b03164210156121da576000915050610ac7565b6121ec816000015182602001516128d5565b915050610ac7565b6000610ac782611b57565b6001600160a01b038082166000908152601360209081526040808320815160a0810183528154815260018201549381019390935260028101546001600160601b038116928401839052600160601b9004909416606083015260039093015461ffff16608082015290918203612278576000915050610ac7565b601254604082015161229791600160b81b900463ffffffff16906131de565b6001600160601b03164210156122af57519050610ac7565b6000915050610ac7565b611b468133612aad565b60008260001904841183021582026122da57600080fd5b5091020490565b60006122ed8383611246565b61236b576000838152602081815260408083206001600160a01b03861684529091529020805460ff191660011790556123233390565b6001600160a01b0316826001600160a01b0316847f2f8788117e7eff1d82e926ec794901d17c78024a50270940304540a733656f0d60405160405180910390a4506001610ac7565b506000610ac7565b60007f8b73c3c69bb8fe3d512ecc4cf759cc79239f7b179b0ffacaa9a75d522b39400f60016040516123a59190613242565b6040805191829003822060208301939093528101919091527fc89efdaa54c0f20c7adf612882df0950f5a951637e0307cdcb4c672f298b8bc660608201524660808201523060a082015260c00160405160208183030381529060405280519060200120905090565b60006124198383611246565b1561236b576000838152602081815260408083206001600160a01b0386168085529252808320805460ff1916905551339286917ff6391f5c32d9c69d2a47ea670b442974b53935d1edc7fd64eb21e047a839171b9190a4506001610ac7565b60026007540361249b57604051633ee5aeb560e01b815260040160405180910390fd5b6002600755565b806000036124c357604051639811e0c760e01b815260040160405180910390fd5b600f546001600160801b03168310806124ed5750600f54600160801b90046001600160801b031683115b1561250e57604051632097692160e11b815260048101849052602401611d58565b60105460115461251e9085613216565b111561253d5760405163027d8fcf60e41b815260040160405180910390fd5b826011600082825461254f9190613216565b9091555061255f90508282612aea565b604051636eb1769f60e11b815233600482015230602482015283907f00000000000000000000000000000000000000000000000000000000000000006001600160a01b03169063dd62ed3e90604401602060405180830381865afa1580156125cb573d6000803e3d6000fd5b505050506040513d601f19601f820116820180604052508101906125ef91906131fd565b101561260e576040516313be252b60e01b815260040160405180910390fd5b60085461264a906001600160a01b037f000000000000000000000000000000000000000000000000000000000000000081169133911686612a11565b60408051848152602081018390526001600160a01b0384169133917fdcbc1c05240f31ff3ad067ef1ee35ce4997762752e3a095284754544f4c709d7910160405180910390a3505050565b60006001600160a01b0382166126be5760405163d92e233d60e01b815260040160405180910390fd5b6001600160a01b03831633146126e757604051638a6d8d2360e01b815260040160405180910390fd5b6001600160a01b03821660009081526004602052604090205484111561272057604051633999656760e01b815260040160405180910390fd5b600061272b85610bf2565b90508060000361274e57604051630cb65c7760e21b815260040160405180910390fd5b60115481111561277157604051634dd0d83d60e11b815260040160405180910390fd5b6001600160a01b038416600090815260136020526040902060028101546001600160601b0316156127b5576040516392135d8960e01b815260040160405180910390fd5b85815560018101829055426001600160601b0316600160601b6001600160a01b03861602176002820155601254600382018054600160a81b90920461ffff1661ffff19909216919091179055600e8054839190600090612816908490613216565b9250508190555085600b600082825461282f9190613216565b92505081905550816011600082825461284891906130c5565b9091555061285890508487612b3c565b60408051878152602081018490526001600160a01b03808716929088169133917fadc93c6eaa198b555c2941f4a8c8f9bac9cbfd95efdd2b44902d746ac8a9e38a910160405180910390a450600095945050505050565b60008260001904841183021582026128c657600080fd5b50910281810615159190040190565b6040516370a0823160e01b815230600482015260009082906001600160a01b037f000000000000000000000000000000000000000000000000000000000000000016906370a0823190602401602060405180830381865afa15801561293e573d6000803e3d6000fd5b505050506040513d601f19601f8201168201806040525081019061296291906131fd565b101561297057506000610ac7565b5081610ac7565b600061271061298683856132b7565b610c1991906132ce565b600060405163a9059cbb60e01b81526001600160a01b0384166004820152826024820152602060006044836000895af13d15601f3d1160016000511416171691505080610dac5760405162461bcd60e51b815260206004820152600f60248201526e1514905394d1915497d19052531151608a1b6044820152606401611d58565b60006040516323b872dd60e01b81526001600160a01b03851660048201526001600160a01b03841660248201528260448201526020600060648360008a5af13d15601f3d1160016000511416171691505080612aa65760405162461bcd60e51b81526020600482015260146024820152731514905394d1915497d19493d357d1905253115160621b6044820152606401611d58565b5050505050565b612ab78282611246565b612ae65760405163e2517d3f60e01b81526001600160a01b038216600482015260248101839052604401611d58565b5050565b8060036000828254612afc9190613216565b90915550506001600160a01b0382166000818152600460209081526040808320805486019055518481526000805160206132f18339815191529101610f30565b6001600160a01b03821660009081526004602052604081208054839290612b649084906130c5565b90915550506003805482900390556040518181526000906001600160a01b038416906000805160206132f183398151915290602001610f30565b600060208284031215612bb057600080fd5b81356001600160e01b031981168114610c1957600080fd5b80358015158114612bd857600080fd5b919050565b600060208284031215612bef57600080fd5b610c1982612bc8565b6000815180845260005b81811015612c1e57602081850181015186830182015201612c02565b506000602082860101526020601f19601f83011685010191505092915050565b602081526000610c196020830184612bf8565b600060208284031215612c6357600080fd5b5035919050565b80356001600160a01b0381168114612bd857600080fd5b60008060408385031215612c9457600080fd5b612c9d83612c6a565b946020939093013593505050565b600080600060608486031215612cc057600080fd5b612cc984612c6a565b9250612cd760208501612c6a565b929592945050506040919091013590565b60008060408385031215612cfb57600080fd5b612d0483612c6a565b9150612d1260208401612c6a565b90509250929050565b60008060408385031215612d2e57600080fd5b82359150612d1260208401612c6a565b600060208284031215612d5057600080fd5b610c1982612c6a565b60008060408385031215612d6c57600080fd5b612d7583612c6a565b9150612d1260208401612bc8565b600080600060608486031215612d9857600080fd5b83359250612da860208501612c6a565b9150612db660408501612c6a565b90509250925092565b60008060008060808587031215612dd557600080fd5b84359350612de560208601612c6a565b9250612df360408601612c6a565b9396929550929360600135925050565b600060208284031215612e1557600080fd5b813561ffff81168114610c1957600080fd5b600060208284031215612e3957600080fd5b813563ffffffff81168114610c1957600080fd5b634e487b7160e01b600052604160045260246000fd5b600082601f830112612e7457600080fd5b813567ffffffffffffffff811115612e8e57612e8e612e4d565b604051601f8201601f19908116603f0116810167ffffffffffffffff81118282101715612ebd57612ebd612e4d565b604052818152838201602001851015612ed557600080fd5b816020850160208301376000918101602001919091529392505050565b600060208284031215612f0457600080fd5b813567ffffffffffffffff811115612f1b57600080fd5b612f2784828501612e63565b949350505050565b6001600160a01b0385168152600060048510612f5b57634e487b7160e01b600052602160045260246000fd5b84602083015260806040830152612f756080830185612bf8565b8281036060840152612f878185612bf8565b979650505050505050565b600060208284031215612fa457600080fd5b81356001600160801b0381168114610c1957600080fd5b60008060408385031215612fce57600080fd5b82359150602083013567ffffffffffffffff811115612fec57600080fd5b612ff885828601612e63565b9150509250929050565b600080600080600080600060e0888a03121561301d57600080fd5b61302688612c6a565b965061303460208901612c6a565b95506040880135945060608801359350608088013560ff8116811461305857600080fd5b9699959850939692959460a0840135945060c09093013592915050565b600181811c9082168061308957607f821691505b6020821081036130a957634e487b7160e01b600052602260045260246000fd5b50919050565b634e487b7160e01b600052601160045260246000fd5b81810381811115610ac757610ac76130af565b601f821115610e4057806000526020600020601f840160051c810160208510156130ff5750805b601f840160051c820191505b81811015612aa6576000815560010161310b565b815167ffffffffffffffff81111561313957613139612e4d565b61314d816131478454613075565b846130d8565b6020601f82116001811461318157600083156131695750848201515b600019600385901b1c1916600184901b178455612aa6565b600084815260208120601f198516915b828110156131b15787850151825560209485019460019092019101613191565b50848210156131cf5786840151600019600387901b60f8161c191681555b50505050600190811b01905550565b6001600160601b038181168382160190811115610ac757610ac76130af565b60006020828403121561320f57600080fd5b5051919050565b80820180821115610ac757610ac76130af565b828152604060208201526000612f276040830184612bf8565b600080835461325081613075565b600182168015613267576001811461327c576132ac565b60ff19831686528115158202860193506132ac565b86600052602060002060005b838110156132a457815488820152600190910190602001613288565b505081860193505b509195945050505050565b8082028115828204841417610ac757610ac76130af565b6000826132eb57634e487b7160e01b600052601260045260246000fd5b50049056feddf252ad1be2c89b69c2b068fc378daa952ba7f163c4a11628f55a4df523b3efa2646970667358221220e39988d584aeeeef433c7534fd55dee0c463855f025f0664661803401963a46f64736f6c634300081a0033",
        "linkReferences": {}
    },
    "methodIdentifiers": {
        "DEFAULT_ADMIN_ROLE()": "a217fddf",
        "DOMAIN_SEPARATOR()": "3644e515",
        "PNL_REPORTER_ROLE()": "133908cb",
        "allowance(address,address)": "dd62ed3e",
        "approve(address,uint256)": "095ea7b3",
        "asset()": "38d52e0f",
        "balanceOf(address)": "70a08231",
        "claimableDelay()": "62e8d5ff",
        "claimableDepositRequest(uint256,address)": "995ea21a",
        "claimableRedeemRequest(uint256,address)": "eaed1d07",
        "convertToAssets(uint256)": "07a2d13a",
        "convertToShares(uint256)": "c6e6f592",
        "decimals()": "313ce567",
        "deposit(uint256,address)": "6e553f65",
        "getRoleAdmin(bytes32)": "248a9ca3",
        "grantRole(bytes32,address)": "2f2ff15d",
        "halted()": "b9b8af0b",
        "hasRole(bytes32,address)": "91d14854",
        "isOperator(address,address)": "b6363cf2",
        "maxDeposit(address)": "402d267d",
        "maxDepositPerTransaction()": "4e84863b",
        "maxMint(address)": "c63d75b6",
        "maxRedeem(address)": "d905777e",
        "maxVaultCapacity()": "7d44aac7",
        "maxWithdraw(address)": "ce96cb77",
        "minDepositPerTransaction()": "5d302747",
        "mint(uint256,address)": "94bf804d",
        "name()": "06fdde03",
        "nonces(address)": "7ecebe00",
        "operators(address,address)": "2637588e",
        "pendingDepositRequest(uint256,address)": "26c6f96c",
        "pendingRedeemRequest(uint256,address)": "f5a23d8d",
        "permit(address,address,uint256,uint256,uint8,bytes32,bytes32)": "d505accf",
        "previewDeposit(uint256)": "ef8b30f7",
        "previewMint(uint256)": "b3d7f6b9",
        "previewRedeem(uint256)": "4cdad506",
        "previewWithdraw(uint256)": "0a28a477",
        "rebalanceAssets(address)": "bc3af32b",
        "redeem(uint256,address,address)": "ba087652",
        "redeemFeeBasisPoints()": "ba82051b",
        "redeemFeeCollector()": "3a07d3e7",
        "redeemRequests(address)": "8d158c2a",
        "renounceRole(bytes32,address)": "36568abe",
        "reportLosses(uint256,string)": "cef5e726",
        "reportProfits(uint256,string)": "d7ba3897",
        "requestDeposit(uint256)": "0d1e6667",
        "requestRedeem(uint256,address,address)": "7d41c86e",
        "requestRedeem(uint256,address,address,uint256)": "8181e161",
        "revokeRole(bytes32,address)": "d547741f",
        "setClaimableDelay(uint32)": "980d57a6",
        "setHaltStatus(bool)": "0519d7c3",
        "setMaxDepositPerTransaction(uint128)": "d1c60564",
        "setMaxVaultCapacity(uint256)": "754db721",
        "setMinDepositPerTransaction(uint128)": "b8cdb3c6",
        "setOperator(address,bool)": "558a7297",
        "setRedeemFee(uint16)": "91c022a5",
        "setRedeemFeeCollector(address)": "5fd6a188",
        "setStrategyName(string)": "a016b2cd",
        "setStrategyURI(string)": "d474c2c2",
        "strategy()": "a8c62e76",
        "supportsInterface(bytes4)": "01ffc9a7",
        "symbol()": "95d89b41",
        "totalAssets()": "01e1d114",
        "totalAssetsInRedemptionProcess()": "5954346c",
        "totalLossesReported()": "7be97667",
        "totalProfitsReported()": "478431ee",
        "totalSharesInRedemptionProcess()": "6ee849c7",
        "totalSupply()": "18160ddd",
        "transfer(address,uint256)": "a9059cbb",
        "transferFrom(address,address,uint256)": "23b872dd",
        "vaultAssets()": "51e596e0",
        "withdraw(uint256,address,address)": "b460af94"
    },
    "id": 55
}